:03000000020036C5
:1000330002007C1200D97590FF75A000C2B4D2B53E
:100043001200F29000FF7D00ED9375A0E0F27400C2
:1000530075A0C0F20DED936005D2B4020063C2B483
:100063000D0DEDC2D593F5EB1DED93F5FB0D0D12C3
:1000730000F620D50280FB80FEC2B5ED93B4FF03EA
:100083000200D00DED931D6017ED9375A0A0F274DF
:100093000075A080F275A0E0F275A0C0F20200B76F
:1000A300ED9375A0E0F2740075A0C0F275A0A0F204
:1000B30075A080F20D0D0DEDC2D59325EBF5EB1D6B
:1000C300ED9335FBF5FB0D0DC2D9D2B5329001038B
:1000D3007D00ED9380ADC2DE75E90075F900D2AE07
:1000E30053D9FE53D9F943D90053D97FD2DE2275B0
:1000F300DB4D2275A8C075B8402280FE0A0003E8D4
:100103000A00003C0A0003AC1400003C0A0103ACE3
:100113001E01003C0A0103AC2801003C0A0003ACA9
:100123003200003C0A0103AC3C01003C0A0003AC72
:100133004600003C0A0103AC5001003C0A0007944E
:09014300FA00003CFA002ABCFF9E
:00000001FF
