:03000000020036C5
:10003300020089C2DE75E90075F9007590FF75A0AD
:1000430000C294C2B4D2B575D90075DC4D9000E8F6
:100053007D00ED9375A0E0F2740075A0C0F20DED84
:10006300936005D2B402006DC2B40D0DEDC2D593F9
:10007300F5EC1DED93F5FC0D0D75D84075A8C0206A
:10008300D50280FB80FEC2B5ED93B4FF030200DD11
:100093000DED931D6017ED9375A0A0F2740075A08C
:1000A30080F275A0E0F275A0C0F20200C4ED937572
:1000B300A0E0F2740075A0C0F275A0A0F275A08054
:1000C300F20D0D0DEDC2D59325ECF5EC1DED933539
:1000D300FCF5FC0D0DC2DAD2B5329000EC7D00EDDB
:1000E3009380AD80FE4B0003E84B0000804B000380
:1000F300684B0000804B0103684B0100804B0103F8
:10010300684B0100804B0003684B0000804B0103E8
:10011300684B0100804B0003684B0000804B0103D8
:10012300684B0100804B0007504B0000804B002AB6
:0201330078FF53
:00000001FF
